{
  "contractName": "Account",
  "abi": [
    {
      "constant": true,
      "inputs": [
        {
          "name": "",
          "type": "address"
        },
        {
          "name": "",
          "type": "uint256"
        }
      ],
      "name": "userCertificates",
      "outputs": [
        {
          "name": "id",
          "type": "uint256"
        },
        {
          "name": "name",
          "type": "string"
        },
        {
          "name": "date",
          "type": "uint256"
        },
        {
          "name": "verified",
          "type": "bool"
        },
        {
          "name": "link",
          "type": "string"
        }
      ],
      "payable": false,
      "stateMutability": "view",
      "type": "function"
    },
    {
      "constant": true,
      "inputs": [],
      "name": "profilescount",
      "outputs": [
        {
          "name": "",
          "type": "uint256"
        }
      ],
      "payable": false,
      "stateMutability": "view",
      "type": "function"
    },
    {
      "constant": true,
      "inputs": [
        {
          "name": "",
          "type": "address"
        }
      ],
      "name": "users",
      "outputs": [
        {
          "name": "Address",
          "type": "address"
        },
        {
          "name": "firstName",
          "type": "string"
        },
        {
          "name": "lastName",
          "type": "string"
        },
        {
          "name": "phone",
          "type": "string"
        },
        {
          "name": "email",
          "type": "string"
        }
      ],
      "payable": false,
      "stateMutability": "view",
      "type": "function"
    },
    {
      "constant": true,
      "inputs": [
        {
          "name": "",
          "type": "address"
        }
      ],
      "name": "usersCheck",
      "outputs": [
        {
          "name": "",
          "type": "bool"
        }
      ],
      "payable": false,
      "stateMutability": "view",
      "type": "function"
    },
    {
      "constant": false,
      "inputs": [
        {
          "name": "firstName",
          "type": "string"
        },
        {
          "name": "lastName",
          "type": "string"
        },
        {
          "name": "phone",
          "type": "string"
        },
        {
          "name": "email",
          "type": "string"
        }
      ],
      "name": "addUser",
      "outputs": [],
      "payable": false,
      "stateMutability": "nonpayable",
      "type": "function"
    },
    {
      "constant": false,
      "inputs": [
        {
          "name": "_name",
          "type": "string"
        },
        {
          "name": "_date",
          "type": "uint256"
        },
        {
          "name": "link_",
          "type": "string"
        }
      ],
      "name": "addCertificate",
      "outputs": [],
      "payable": false,
      "stateMutability": "nonpayable",
      "type": "function"
    },
    {
      "constant": true,
      "inputs": [],
      "name": "getUserName",
      "outputs": [
        {
          "name": "",
          "type": "string"
        }
      ],
      "payable": false,
      "stateMutability": "view",
      "type": "function"
    },
    {
      "constant": true,
      "inputs": [
        {
          "name": "address_",
          "type": "address"
        }
      ],
      "name": "getUser",
      "outputs": [
        {
          "components": [
            {
              "name": "Address",
              "type": "address"
            },
            {
              "name": "firstName",
              "type": "string"
            },
            {
              "name": "lastName",
              "type": "string"
            },
            {
              "name": "phone",
              "type": "string"
            },
            {
              "name": "email",
              "type": "string"
            }
          ],
          "name": "",
          "type": "tuple"
        }
      ],
      "payable": false,
      "stateMutability": "view",
      "type": "function"
    },
    {
      "constant": true,
      "inputs": [
        {
          "name": "userAddress",
          "type": "address"
        }
      ],
      "name": "getUserCertificates",
      "outputs": [
        {
          "components": [
            {
              "name": "id",
              "type": "uint256"
            },
            {
              "name": "name",
              "type": "string"
            },
            {
              "name": "date",
              "type": "uint256"
            },
            {
              "name": "verified",
              "type": "bool"
            },
            {
              "name": "link",
              "type": "string"
            }
          ],
          "name": "",
          "type": "tuple[]"
        }
      ],
      "payable": false,
      "stateMutability": "view",
      "type": "function"
    },
    {
      "constant": false,
      "inputs": [
        {
          "name": "userAddress",
          "type": "address"
        },
        {
          "name": "_id",
          "type": "uint256"
        },
        {
          "name": "link_",
          "type": "string"
        }
      ],
      "name": "verifyCertificate",
      "outputs": [],
      "payable": false,
      "stateMutability": "nonpayable",
      "type": "function"
    },
    {
      "constant": true,
      "inputs": [],
      "name": "getUsers",
      "outputs": [
        {
          "components": [
            {
              "name": "Address",
              "type": "address"
            },
            {
              "name": "firstName",
              "type": "string"
            },
            {
              "name": "lastName",
              "type": "string"
            },
            {
              "name": "phone",
              "type": "string"
            },
            {
              "name": "email",
              "type": "string"
            }
          ],
          "name": "",
          "type": "tuple[]"
        }
      ],
      "payable": false,
      "stateMutability": "view",
      "type": "function"
    }
  ],
  "bytecode": "0x608060405234801561001057600080fd5b50611ff0806100206000396000f3006080604052600436106100ae576000357c0100000000000000000000000000000000000000000000000000000000900463ffffffff168062ce8e3e146100b35780630175f889146100de57806301cda3ac1461011f5780630385bd181461014857806312958f1c146101855780634666af99146101b05780635b4e88ea146101d95780636f77926b14610204578063a87430ba14610241578063abe9abae14610282578063ca14368a146102bf575b600080fd5b3480156100bf57600080fd5b506100c86102e8565b6040516100d59190611d4d565b60405180910390f35b3480156100ea57600080fd5b50610105600480360361010091908101906117cf565b610626565b604051610116959493929190611de9565b60405180910390f35b34801561012b57600080fd5b5061014660048036036101419190810190611872565b6107b5565b005b34801561015457600080fd5b5061016f600480360361016a91908101906117a6565b610aaf565b60405161017c9190611d2b565b60405180910390f35b34801561019157600080fd5b5061019a610cc1565b6040516101a79190611d8a565b60405180910390f35b3480156101bc57600080fd5b506101d760048036036101d29190810190611935565b610da2565b005b3480156101e557600080fd5b506101ee610eb9565b6040516101fb9190611dce565b60405180910390f35b34801561021057600080fd5b5061022b600480360361022691908101906117a6565b610ebf565b6040516102389190611dac565b60405180910390f35b34801561024d57600080fd5b50610268600480360361026391908101906117a6565b6111f6565b604051610279959493929190611cbc565b60405180910390f35b34801561028e57600080fd5b506102a960048036036102a491908101906117a6565b6114ac565b6040516102b69190611d6f565b60405180910390f35b3480156102cb57600080fd5b506102e660048036036102e1919081019061180b565b6114cc565b005b60606004805480602002602001604051908101604052809291908181526020016000905b8282101561061d578382906000526020600020906005020160a060405190810160405290816000820160009054906101000a900473ffffffffffffffffffffffffffffffffffffffff1673ffffffffffffffffffffffffffffffffffffffff1673ffffffffffffffffffffffffffffffffffffffff168152602001600182018054600181600116156101000203166002900480601f01602080910402602001604051908101604052809291908181526020018280546001816001161561010002031660029004801561041f5780601f106103f45761010080835404028352916020019161041f565b820191906000526020600020905b81548152906001019060200180831161040257829003601f168201915b50505050508152602001600282018054600181600116156101000203166002900480601f0160208091040260200160405190810160405280929190818152602001828054600181600116156101000203166002900480156104c15780601f10610496576101008083540402835291602001916104c1565b820191906000526020600020905b8154815290600101906020018083116104a457829003601f168201915b50505050508152602001600382018054600181600116156101000203166002900480601f0160208091040260200160405190810160405280929190818152602001828054600181600116156101000203166002900480156105635780601f1061053857610100808354040283529160200191610563565b820191906000526020600020905b81548152906001019060200180831161054657829003601f168201915b50505050508152602001600482018054600181600116156101000203166002900480601f0160208091040260200160405190810160405280929190818152602001828054600181600116156101000203166002900480156106055780601f106105da57610100808354040283529160200191610605565b820191906000526020600020905b8154815290600101906020018083116105e857829003601f168201915b5050505050815250508152602001906001019061030c565b50505050905090565b60036020528160005260406000208181548110151561064157fe5b906000526020600020906005020160009150915050806000015490806001018054600181600116156101000203166002900480601f0160208091040260200160405190810160405280929190818152602001828054600181600116156101000203166002900480156106f45780601f106106c9576101008083540402835291602001916106f4565b820191906000526020600020905b8154815290600101906020018083116106d757829003601f168201915b5050505050908060020154908060030160009054906101000a900460ff1690806004018054600181600116156101000203166002900480601f0160208091040260200160405190810160405280929190818152602001828054600181600116156101000203166002900480156107ab5780601f10610780576101008083540402835291602001916107ab565b820191906000526020600020905b81548152906001019060200180831161078e57829003601f168201915b5050505050905085565b6107bd61160b565b600160003373ffffffffffffffffffffffffffffffffffffffff1673ffffffffffffffffffffffffffffffffffffffff16815260200190815260200160002060009054906101000a900460ff1615151561081657600080fd5b60a0604051908101604052803373ffffffffffffffffffffffffffffffffffffffff168152602001868152602001858152602001848152602001838152509050806000803373ffffffffffffffffffffffffffffffffffffffff1673ffffffffffffffffffffffffffffffffffffffff16815260200190815260200160002060008201518160000160006101000a81548173ffffffffffffffffffffffffffffffffffffffff021916908373ffffffffffffffffffffffffffffffffffffffff16021790555060208201518160010190805190602001906108f8929190611651565b506040820151816002019080519060200190610915929190611651565b506060820151816003019080519060200190610932929190611651565b50608082015181600401908051906020019061094f929190611651565b5090505060018060003373ffffffffffffffffffffffffffffffffffffffff1673ffffffffffffffffffffffffffffffffffffffff16815260200190815260200160002060006101000a81548160ff0219169083151502179055506002600081548092919060010191905055506004819080600181540180825580915050906001820390600052602060002090600502016000909192909190915060008201518160000160006101000a81548173ffffffffffffffffffffffffffffffffffffffff021916908373ffffffffffffffffffffffffffffffffffffffff1602179055506020820151816001019080519060200190610a4d929190611651565b506040820151816002019080519060200190610a6a929190611651565b506060820151816003019080519060200190610a87929190611651565b506080820151816004019080519060200190610aa4929190611651565b505050505050505050565b6060600360008373ffffffffffffffffffffffffffffffffffffffff1673ffffffffffffffffffffffffffffffffffffffff168152602001908152602001600020805480602002602001604051908101604052809291908181526020016000905b82821015610cb6578382906000526020600020906005020160a0604051908101604052908160008201548152602001600182018054600181600116156101000203166002900480601f016020809104026020016040519081016040528092919081815260200182805460018160011615610100020316600290048015610bd75780601f10610bac57610100808354040283529160200191610bd7565b820191906000526020600020905b815481529060010190602001808311610bba57829003601f168201915b50505050508152602001600282015481526020016003820160009054906101000a900460ff16151515158152602001600482018054600181600116156101000203166002900480601f016020809104026020016040519081016040528092919081815260200182805460018160011615610100020316600290048015610c9e5780601f10610c7357610100808354040283529160200191610c9e565b820191906000526020600020905b815481529060010190602001808311610c8157829003601f168201915b50505050508152505081526020019060010190610b10565b505050509050919050565b60606000803373ffffffffffffffffffffffffffffffffffffffff1673ffffffffffffffffffffffffffffffffffffffff1681526020019081526020016000206001018054600181600116156101000203166002900480601f016020809104026020016040519081016040528092919081815260200182805460018160011615610100020316600290048015610d985780601f10610d6d57610100808354040283529160200191610d98565b820191906000526020600020905b815481529060010190602001808311610d7b57829003601f168201915b5050505050905090565b610daa6116d1565b60a060405190810160405280428152602001858152602001848152602001600015158152602001838152509050600360003373ffffffffffffffffffffffffffffffffffffffff1673ffffffffffffffffffffffffffffffffffffffff1681526020019081526020016000208190806001815401808255809150509060018203906000526020600020906005020160009091929091909150600082015181600001556020820151816001019080519060200190610e68929190611651565b506040820151816002015560608201518160030160006101000a81548160ff0219169083151502179055506080820151816004019080519060200190610eaf929190611651565b5050505050505050565b60025481565b610ec761160b565b6000808373ffffffffffffffffffffffffffffffffffffffff1673ffffffffffffffffffffffffffffffffffffffff16815260200190815260200160002060a060405190810160405290816000820160009054906101000a900473ffffffffffffffffffffffffffffffffffffffff1673ffffffffffffffffffffffffffffffffffffffff1673ffffffffffffffffffffffffffffffffffffffff168152602001600182018054600181600116156101000203166002900480601f0160208091040260200160405190810160405280929190818152602001828054600181600116156101000203166002900480156110005780601f10610fd557610100808354040283529160200191611000565b820191906000526020600020905b815481529060010190602001808311610fe357829003601f168201915b50505050508152602001600282018054600181600116156101000203166002900480601f0160208091040260200160405190810160405280929190818152602001828054600181600116156101000203166002900480156110a25780601f10611077576101008083540402835291602001916110a2565b820191906000526020600020905b81548152906001019060200180831161108557829003601f168201915b50505050508152602001600382018054600181600116156101000203166002900480601f0160208091040260200160405190810160405280929190818152602001828054600181600116156101000203166002900480156111445780601f1061111957610100808354040283529160200191611144565b820191906000526020600020905b81548152906001019060200180831161112757829003601f168201915b50505050508152602001600482018054600181600116156101000203166002900480601f0160208091040260200160405190810160405280929190818152602001828054600181600116156101000203166002900480156111e65780601f106111bb576101008083540402835291602001916111e6565b820191906000526020600020905b8154815290600101906020018083116111c957829003601f168201915b5050505050815250509050919050565b60006020528060005260406000206000915090508060000160009054906101000a900473ffffffffffffffffffffffffffffffffffffffff1690806001018054600181600116156101000203166002900480601f0160208091040260200160405190810160405280929190818152602001828054600181600116156101000203166002900480156112c85780601f1061129d576101008083540402835291602001916112c8565b820191906000526020600020905b8154815290600101906020018083116112ab57829003601f168201915b505050505090806002018054600181600116156101000203166002900480601f0160208091040260200160405190810160405280929190818152602001828054600181600116156101000203166002900480156113665780601f1061133b57610100808354040283529160200191611366565b820191906000526020600020905b81548152906001019060200180831161134957829003601f168201915b505050505090806003018054600181600116156101000203166002900480601f0160208091040260200160405190810160405280929190818152602001828054600181600116156101000203166002900480156114045780601f106113d957610100808354040283529160200191611404565b820191906000526020600020905b8154815290600101906020018083116113e757829003601f168201915b505050505090806004018054600181600116156101000203166002900480601f0160208091040260200160405190810160405280929190818152602001828054600181600116156101000203166002900480156114a25780601f10611477576101008083540402835291602001916114a2565b820191906000526020600020905b81548152906001019060200180831161148557829003601f168201915b5050505050905085565b60016020528060005260406000206000915054906101000a900460ff1681565b60008090505b600360008573ffffffffffffffffffffffffffffffffffffffff1673ffffffffffffffffffffffffffffffffffffffff168152602001908152602001600020805490508110156116055782600360008673ffffffffffffffffffffffffffffffffffffffff1673ffffffffffffffffffffffffffffffffffffffff1681526020019081526020016000208281548110151561156957fe5b90600052602060002090600502016000015414156115f8576001600360008673ffffffffffffffffffffffffffffffffffffffff1673ffffffffffffffffffffffffffffffffffffffff168152602001908152602001600020828154811015156115cf57fe5b906000526020600020906005020160030160006101000a81548160ff0219169083151502179055505b80806001019150506114d2565b50505050565b60a060405190810160405280600073ffffffffffffffffffffffffffffffffffffffff168152602001606081526020016060815260200160608152602001606081525090565b828054600181600116156101000203166002900490600052602060002090601f016020900481019282601f1061169257805160ff19168380011785556116c0565b828001600101855582156116c0579182015b828111156116bf5782518255916020019190600101906116a4565b5b5090506116cd9190611703565b5090565b60a060405190810160405280600081526020016060815260200160008152602001600015158152602001606081525090565b61172591905b80821115611721576000816000905550600101611709565b5090565b90565b60006117348235611f39565b905092915050565b600082601f830112151561174f57600080fd5b813561176261175d82611e77565b611e4a565b9150808252602083016020830185838301111561177e57600080fd5b611789838284611f63565b50505092915050565b600061179e8235611f59565b905092915050565b6000602082840312156117b857600080fd5b60006117c684828501611728565b91505092915050565b600080604083850312156117e257600080fd5b60006117f085828601611728565b925050602061180185828601611792565b9150509250929050565b60008060006060848603121561182057600080fd5b600061182e86828701611728565b935050602061183f86828701611792565b925050604084013567ffffffffffffffff81111561185c57600080fd5b6118688682870161173c565b9150509250925092565b6000806000806080858703121561188857600080fd5b600085013567ffffffffffffffff8111156118a257600080fd5b6118ae8782880161173c565b945050602085013567ffffffffffffffff8111156118cb57600080fd5b6118d78782880161173c565b935050604085013567ffffffffffffffff8111156118f457600080fd5b6119008782880161173c565b925050606085013567ffffffffffffffff81111561191d57600080fd5b6119298782880161173c565b91505092959194509250565b60008060006060848603121561194a57600080fd5b600084013567ffffffffffffffff81111561196457600080fd5b6119708682870161173c565b935050602061198186828701611792565b925050604084013567ffffffffffffffff81111561199e57600080fd5b6119aa8682870161173c565b9150509250925092565b6119bd81611f03565b82525050565b60006119ce82611ebd565b808452602084019350836020820285016119e785611ea3565b60005b84811015611a20578383038852611a02838351611b1a565b9250611a0d82611ee9565b91506020880197506001810190506119ea565b508196508694505050505092915050565b6000611a3c82611ec8565b80845260208401935083602082028501611a5585611eb0565b60005b84811015611a8e578383038852611a70838351611c22565b9250611a7b82611ef6565b9150602088019750600181019050611a58565b508196508694505050505092915050565b611aa881611f23565b82525050565b6000611ab982611ede565b808452611acd816020860160208601611f72565b611ad681611fa5565b602085010191505092915050565b6000611aef82611ed3565b808452611b03816020860160208601611f72565b611b0c81611fa5565b602085010191505092915050565b600060a083016000830151611b326000860182611cad565b5060208301518482036020860152611b4a8282611ae4565b9150506040830151611b5f6040860182611cad565b506060830151611b726060860182611a9f565b5060808301518482036080860152611b8a8282611ae4565b9150508091505092915050565b600060a083016000830151611baf60008601826119b4565b5060208301518482036020860152611bc78282611ae4565b91505060408301518482036040860152611be18282611ae4565b91505060608301518482036060860152611bfb8282611ae4565b91505060808301518482036080860152611c158282611ae4565b9150508091505092915050565b600060a083016000830151611c3a60008601826119b4565b5060208301518482036020860152611c528282611ae4565b91505060408301518482036040860152611c6c8282611ae4565b91505060608301518482036060860152611c868282611ae4565b91505060808301518482036080860152611ca08282611ae4565b9150508091505092915050565b611cb681611f2f565b82525050565b600060a082019050611cd160008301886119b4565b8181036020830152611ce38187611ae4565b90508181036040830152611cf78186611ae4565b90508181036060830152611d0b8185611ae4565b90508181036080830152611d1f8184611ae4565b90509695505050505050565b60006020820190508181036000830152611d4581846119c3565b905092915050565b60006020820190508181036000830152611d678184611a31565b905092915050565b6000602082019050611d846000830184611a9f565b92915050565b60006020820190508181036000830152611da48184611aae565b905092915050565b60006020820190508181036000830152611dc68184611b97565b905092915050565b6000602082019050611de36000830184611cad565b92915050565b600060a082019050611dfe6000830188611cad565b8181036020830152611e108187611ae4565b9050611e1f6040830186611cad565b611e2c6060830185611a9f565b8181036080830152611e3e8184611ae4565b90509695505050505050565b6000604051905081810181811067ffffffffffffffff82111715611e6d57600080fd5b8060405250919050565b600067ffffffffffffffff821115611e8e57600080fd5b601f19601f8301169050602081019050919050565b6000602082019050919050565b6000602082019050919050565b600081519050919050565b600081519050919050565b600081519050919050565b600081519050919050565b6000602082019050919050565b6000602082019050919050565b600073ffffffffffffffffffffffffffffffffffffffff82169050919050565b60008115159050919050565b6000819050919050565b600073ffffffffffffffffffffffffffffffffffffffff82169050919050565b6000819050919050565b82818337600083830152505050565b60005b83811015611f90578082015181840152602081019050611f75565b83811115611f9f576000848401525b50505050565b6000601f19601f83011690509190505600a265627a7a72305820d39b17456f6b680fecd7d174675fd267a3951e3f0e763f0761e98f2ef61610fd6c6578706572696d656e74616cf50037",
  "source": "pragma solidity >=0.4.25 <0.9.0;\npragma experimental ABIEncoderV2;\n\ncontract Account {\n    struct User {\n        address Address;\n        string firstName;\n        string lastName;\n        string phone;\n        string email;\n    }\n\n    struct Certificate {\n        uint256 id;\n        string name;\n        uint256 date;\n        bool verified;\n        string link;\n    }\n\n    mapping(address => User) public users;\n    mapping(address => bool) public usersCheck;\n    uint public profilescount ;\n    mapping(address => Certificate[]) public userCertificates;\n    User[] allUsers;\n    function addUser (string memory firstName, string memory lastName, string memory phone, string memory email) {\n        require (!usersCheck[msg.sender]); \n        User memory u = User(msg.sender, firstName, lastName, phone, email);\n        users[msg.sender] = u;\n        usersCheck[msg.sender] = true;\n        profilescount ++;\n        allUsers.push(u);\n    }\n    function addCertificate(string memory _name, uint256 _date, string memory link_) public{\n        Certificate memory cert = Certificate(block.timestamp, _name, _date, false, link_);\n        userCertificates[msg.sender].push(cert);\n    }\n    function getUserName() public view returns(string memory){\n        return users[msg.sender].firstName;\n    }\n    function getUser(address address_) public view returns(User memory){\n        return users[address_];\n    }\n    function getUserCertificates(address userAddress) public view returns(Certificate [] memory) {\n        return userCertificates[userAddress];\n    }\n    function verifyCertificate(address userAddress, uint256 _id, string link_) public {\n        for(uint256 i = 0; i < userCertificates[userAddress].length; i++) {\n            if (userCertificates[userAddress][i].id == _id) {\n                userCertificates[userAddress][i].verified = true;\n            }\n        }\n    }\n    function getUsers() public view returns(User[] memory) {\n        return allUsers;\n    }\n}\n\n",
  "sourcePath": "/home/essia/Documents/newProject/contracts/account.sol",
  "compiler": {
    "name": "solc",
    "version": "0.4.25+commit.59dbf8f1.Emscripten.clang"
  },
  "schemaVersion": "3.4.10",
  "updatedAt": "2023-01-18T09:36:56.932Z",
  "devdoc": {
    "methods": {}
  },
  "userdoc": {
    "methods": {}
  }
}