{
  "contractName": "User",
  "abi": [
    {
      "inputs": [
        {
          "name": "address_",
          "type": "address"
        },
        {
          "name": "firstName_",
          "type": "string"
        },
        {
          "name": "lastName_",
          "type": "string"
        },
        {
          "name": "phone_",
          "type": "string"
        },
        {
          "name": "email_",
          "type": "string"
        }
      ],
      "payable": false,
      "stateMutability": "nonpayable",
      "type": "constructor"
    },
    {
      "constant": true,
      "inputs": [],
      "name": "getData",
      "outputs": [
        {
          "name": "",
          "type": "string"
        }
      ],
      "payable": false,
      "stateMutability": "view",
      "type": "function"
    }
  ],
  "bytecode": "0x608060405234801561001057600080fd5b5060405161056d38038061056d833981018060405261003291908101906101e7565b846000806101000a81548173ffffffffffffffffffffffffffffffffffffffff021916908373ffffffffffffffffffffffffffffffffffffffff16021790555083600190805190602001906100889291906100d8565b50826002908051906020019061009f9291906100d8565b5081600390805190602001906100b69291906100d8565b5080600490805190602001906100cd9291906100d8565b50505050505061036a565b828054600181600116156101000203166002900490600052602060002090601f016020900481019282601f1061011957805160ff1916838001178555610147565b82800160010185558215610147579182015b8281111561014657825182559160200191906001019061012b565b5b5090506101549190610158565b5090565b61017a91905b8082111561017657600081600090555060010161015e565b5090565b90565b60006101898251610317565b905092915050565b600082601f83011215156101a457600080fd5b81516101b76101b2826102eb565b6102be565b915080825260208301602083018583830111156101d357600080fd5b6101de838284610337565b50505092915050565b600080600080600060a086880312156101ff57600080fd5b600061020d8882890161017d565b955050602086015167ffffffffffffffff81111561022a57600080fd5b61023688828901610191565b945050604086015167ffffffffffffffff81111561025357600080fd5b61025f88828901610191565b935050606086015167ffffffffffffffff81111561027c57600080fd5b61028888828901610191565b925050608086015167ffffffffffffffff8111156102a557600080fd5b6102b188828901610191565b9150509295509295909350565b6000604051905081810181811067ffffffffffffffff821117156102e157600080fd5b8060405250919050565b600067ffffffffffffffff82111561030257600080fd5b601f19601f8301169050602081019050919050565b600073ffffffffffffffffffffffffffffffffffffffff82169050919050565b60005b8381101561035557808201518184015260208101905061033a565b83811115610364576000848401525b50505050565b6101f4806103796000396000f300608060405260043610610041576000357c0100000000000000000000000000000000000000000000000000000000900463ffffffff1680633bc5de3014610046575b600080fd5b34801561005257600080fd5b5061005b610071565b6040516100689190610149565b60405180910390f35b606060018054600181600116156101000203166002900480601f0160208091040260200160405190810160405280929190818152602001828054600181600116156101000203166002900480156101095780601f106100de57610100808354040283529160200191610109565b820191906000526020600020905b8154815290600101906020018083116100ec57829003601f168201915b5050505050905090565b600061011e8261016b565b808452610132816020860160208601610176565b61013b816101a9565b602085010191505092915050565b600060208201905081810360008301526101638184610113565b905092915050565b600081519050919050565b60005b83811015610194578082015181840152602081019050610179565b838111156101a3576000848401525b50505050565b6000601f19601f83011690509190505600a265627a7a723058201866f5cf44140cc9346b362ba89a78700934688ee1c31352849e0a9a7318c39c6c6578706572696d656e74616cf50037",
  "source": "pragma solidity >=0.4.25 <0.9.0;\npragma experimental ABIEncoderV2;\n\n//import \"./Types.sol\";\n\ncontract User {\n    address private Address;\n    string private firstName;\n    string private lastName;\n    string private phone;\n    string private email;\n\n    constructor(address address_, string memory firstName_, string memory lastName_, string memory phone_, string memory email_) {\n        Address = address_;\n        firstName = firstName_;\n        lastName = lastName_;\n        phone = phone_;\n        email = email_;\n    }\n\n    function getData() public view returns(string memory){\n        return firstName;\n    }\n    \n}\n\n",
  "sourcePath": "/home/essia/Documents/newProject/contracts/user.sol",
  "compiler": {
    "name": "solc",
    "version": "0.4.25+commit.59dbf8f1.Emscripten.clang"
  },
  "schemaVersion": "3.4.10",
  "updatedAt": "2023-01-18T09:36:56.935Z",
  "devdoc": {
    "methods": {}
  },
  "userdoc": {
    "methods": {}
  }
}